:030000000209539F
:0C095300787FE4F6D8FD75811B02087F58
:030962000D0A007B
:10092F00EF1FAA0670011E4A600BE4FDEDC3947819
:05093F0050EE0D80F7F1
:010944002290
:10091800C292D292C2923091FDD2907F027E001292
:06092800092FAFA0C290F0
:01092E0022A6
:10084600E4FBEB139280EBC313139281EB13135467
:100856003F139282EB131313541F1392837F1E7E52
:100866000012092F12091874082BF8A6077F027EBA
:080876000012092F0BBB10CA90
:01087E002257
:0E0945008F993099FDC2997F027E0002092F22
:0608F9008B198A1A891B0D
:1008FF00E4FCAB19AA1AA91B8C8275830012081984
:08090F00FF1209450CBC10EABF
:0109170022BD
:1008D6008B198A1A891BAB19AA1AA91B120800FFC1
:1008E60060101209457401251BF51BE4351AF51A2B
:0308F60080E42279
:1008B000758922758C14E4F58AD2A9D28CD28875F8
:1008C0009850F587758DFD758BFDC2ACD2AF75B8AC
:0608D00001C299D28E2244
:10087F001208B075900FE4F518120846E4FF12093C
:10088F00457B007A0079081208F97FFF1209457B32
:10089F00FF7A0979621208D67FF47E0112092F8040
:0108AF00D870
:03000B0002095F88
:03095F00B293321E
:10080000BB010689828A83E0225002E722BBFE02F6
:09081000E32289828A83E4932229
:10081900BB010CE58229F582E5833AF583E0225094
:1008290006E92582F8E622BBFE06E92582F8E222DE
:0D083900E58229F582E5833AF583E49322F8
:00000001FF
